:0400000080315328D0
:100008007E14803120007F08F400911E4F282300C1
:100018001908F0007008F50020003608031D4F2865
:10002800F508031D1A28B601B60A4F28F601B230A2
:10003800760203184F287608BD3E860087012030D7
:10004800873D0108031D47287608BD3EF000F101F1
:100058002030F13D7008860071088700750881001E
:100068007608013EF000003003180130F100BD3081
:10007800F2002030F3007008720786007108733DA3
:10008800870081014F280130F0007008F607B23070
:100098007602031C1F287408FF007E1009008031B7
:1000A8005528BD30840020308500B330FE00003074
:1000B800FF0083313923B6017E1020008031642887
:1000C8006A302100990010308C0023008C01200038
:1000D8008C01023021008D0023008D0122009D1328
:1000E8001E1020008D0122001D1025009301200004
:1000F8009C0119309B000C302500910092012000D2
:100108009A011C15B501053035020318B1280C14E5
:100118008C140230B1008630B0009930AF00AF0BBC
:100128009328B00B9328B10B932820000C108C1047
:100138000230B1008630B0009930AF00AF0BA22872
:10014800B00BA228B10BA22801302000AF002F0865
:10015800B50705303502031C8B28093082319522FA
:1001680080318331512380312000360803192F2A2A
:1001780083315C2380312000B501B401B3303502EE
:100188000318DC283508BD3E860087012030873DEE
:100198000108031DD4283508AF002F08B400DC2857
:1001A8000130AF002F08B507B3303502031CC6284D
:1001B8000C303402031CFA29B23035020318FA292C
:1001C8000C14BD30860020308700463101089B00A2
:1001D800BD30860020308700473101082500910096
:1001E800BD3086002030870045310F3001052000E2
:1001F800AF002F08013A031D7729BD308600203053
:10020800870045310030011E0130AF002F08B300D0
:10021800023033020318F4290C3025009300BD3056
:1002280086002030870001088331112380312500A2
:100238009301BD30860020308700413101088331A9
:100248001123803108302000AF002F08B500340892
:10025800350203185A29BD30860020308700423104
:100268000108AF002F08A200BD30860020308700AB
:1002780043310108B0003008A300BD3086002030AB
:10028800870044310108B1003108A4003508BD3E9B
:10029800860087012030873D010882315322803152
:1002A80001302000AF002F08B5072B290C3025009E
:1002B8009300BD3086002030870042310108833129
:1002C8002C2380312500930127302000B000F53021
:1002D800AF00AF0B6D29B00B6D2901302000AF00C6
:1002E8002F08B3070C29BD30860020308700453120
:1002F8000F300105AF002F08023A031D87290C3083
:1003080025009300F429BD30860020308700453150
:100318000F3001052000AF002F08043A031DBE2945
:10032800B501143035020318F429BD308600203099
:10033800870042310108AF002F08A200BD308600B7
:100348002030870043310108B0003008A300BD30D9
:1003580086002030870044310108B1003108A4002C
:10036800AA3082315322803101302000AF002F089B
:10037800B5079529BD3086002030870045310F30FC
:100388000105AF002F08083A031DF429B201B20A8B
:100398000830AF002F08B500340835020318F229D9
:1003A80032080319DD290C30250093002000B20122
:1003B800E229250093012000B201B20A3508BD3EAA
:1003C800860087012030873D010883311F23803153
:1003D80001302000AF002F08B507D0292500930170
:1003E80020000C100D30A1008330272A2000B50111
:1003F800053035020318242A8C140230B1008630E7
:10040800B0009930AF00AF0B072AB00B072AB10B29
:10041800072A20008C100230B1008630B0009930D5
:10042800AF00AF0B152AB00B152AB10B152A0130F6
:100438002000AF002F08B50705303502031C002A3D
:100448000930A1008330A2008231CB228031833170
:1004580051238031200003302000B1007030B000FB
:100468005D30AF00AF0B362AB00B362AB10B362AF7
:10047800000000302000A1008330A2008231CB228E
:10048800803120008C141A30B000F830AF00AF0B68
:100498004B2AB00B4B2A000020008C10B8282000F3
:1004A800A800A901AA012A08803AA50080302502DF
:1004B800083003192902031808002000290AA5009A
:1004C8008030A6000030A7006C2A270DA70CA60CC8
:1004D800A50B692A2000260828050319802A0C3054
:1004E800250093002000220883312C238231250027
:1004F8009301200023088C2A0C302500930020004B
:10050800220883312C2382312500930120002408FE
:1005180083312C23823101302000A9070030AA3D05
:10052800572A2000A00023001E129F11AA2A230088
:100538001E11A32A23001E11A72A23001E151930F5
:10054800A82A23001E150C309B00B92A2000200879
:10055800023A03199B2A063A03199E2A0D3A0319EF
:10056800A12A1A3A0319A52AB92A23001D161E130F
:100578001D139D179E162000B601BD308600203041
:1005880087000030C03F210011129116080020009A
:100598002108840022088500000800380319080093
:1005A80020002108840022088500000883314523A3
:0E05B800823101302000A1070030A23DCB2A85
:100600007334743461346E346434623479340A344B
:1006100000344E3447340A3400346F346B340A34B7
:1006200000342000A1001E30A000A00B152B0032CA
:1006300001302000A102A10803190800132B20009B
:10064000A1000E30A000A00B232B01302000A1023E
:10065000A10803190800212B2000A1000430A000EC
:10066000A00B302B01302000A102A10803190800C3
:100670002E2B6400800101310130FE020030FF3B6F
:100680007F087E04031900343A2B2000A0002300C9
:100690009E1C472B2000111E472B200823009A0088
:1006A0000800BD308600203087000030C03F2000A9
:0E06B000B6010B178B1708000B138B130800F5
:020000040001F9
:04000E0084C9FFDAC8
:00000001FF
